:020000040800F2
:1000000000000320A5540008793B0008873B000846
:100010008F3B0008973B00089F3B00080000000052
:10002000000000000000000000000000A73B0008E6
:10003000B53B000800000000C33B0008D13B0008AE
:10004000F9540008F9540008F9540008DD3B000891
:10005000F9540008F95400087F3C00088D3C000862
:10006000F9540008F9540008713C0008E93B000805
:10007000F9540008F9540008FD3B0008F954000841
:10008000F9540008F9540008F9540008F95400081C
:10009000F9540008F9540008F9540008F95400080C
:1000A000F9540008F9540008F9540008F9540008FC
:1000B000F9540008F9540008F9540008F9540008EC
:1000C000F9540008F9540008F9540008F9540008DC
:1000D000113C0008253C0008F9540008F9540008B8
:1000E000F9540008F9540008F9540008F9540008BC
:1000F000393C0008453C0008513C0008F954000810
:10010000F9540008F9540008F9540008F95400089B
:10011000F9540008F9540008F9540008F95400088B
:10012000F9540008F95400085D3C0008F95400082F
:0C013000F9540008F9540008F9540008C4
:1001400010B5054C237833B9044B13B10448AFF311
:1001500000800123237010BD540200200000000025
:10016000D019010808B5034B1BB103490348AFF38D
:10017000008008BD0000000058020020D0190108CE
:1001800010F8012B11F8013B012A28BF9A42F7D041
:10019000D01A7047000000000000000000000000BE
:1001A00001F0FF01102A2BDB10F0070F08D010F828
:1001B000013B013A8B422DD010F0070F42B3F6D12C
:1001C000F0B441EA012141EA014122F007047FF045
:1001D00000070023F0E80256083C85EA010586EA9C
:1001E000010685FA47F5A3FA87F586FA47F6A5FAD8
:1001F00087F68EB9EED1F0BC01F0FF0102F00702E4
:1002000032B110F8013B013A83EA010313B1F8D18E
:100210000020704701387047002D06BF354603386F
:10022000073815F0010F07D1013015F4807F02BFA8
:10023000013015F4C03F0130F0BC0138704700BFF9
:10024000034613F8012B002AFBD1181A0138704716
:1002500081F0004102E000BF83F0004330B54FEA77
:1002600041044FEA430594EA050F08BF90EA020FE4
:100270001FBF54EA000C55EA020C7FEA645C7FEA77
:10028000655C00F0E2804FEA5454D4EB5555B8BF9A
:100290006D420CDD2C4480EA020281EA030382EA0B
:1002A000000083EA010180EA020281EA0303362D9D
:1002B00088BF30BD11F0004F4FEA01314FF4801C70
:1002C0004CEA113102D0404261EB410113F0004F82
:1002D0004FEA03334CEA133302D0524263EB430339
:1002E00094EA050F00F0A780A4F10104D5F1200ED7
:1002F0000DDB02FA0EFC22FA05F2801841F1000132
:1003000003FA0EF2801843FA05F359410EE0A5F105
:1003100020050EF1200E012A03FA0EFC28BF4CF036
:10032000020C43FA05F3C01851EBE37101F00045EC
:1003300007D54FF0000EDCF1000C7EEB00006EEBF9
:100340000101B1F5801F1BD3B1F5001F0CD3490883
:100350005FEA30004FEA3C0C04F101044FEA4452DA
:1003600012F5800F80F09A80BCF1004F08BF5FEA61
:10037000500C50F1000041EB045141EA050130BD41
:100380005FEA4C0C404141EB0101013C28BFB1F553
:10039000801FE9D291F0000F04BF01460020B1FA9E
:1003A00081F308BF2033A3F10B03B3F120020CDA71
:1003B0000C3208DD02F1140CC2F10C0201FA0CF04F
:1003C00021FA02F10CE002F11402D8BFC2F1200CB4
:1003D00001FA02F120FA0CFCDCBF41EA0C0190406A
:1003E000E41AA2BF01EB0451294330BD6FEA0404B3
:1003F0001F3C1CDA0C340EDC04F11404C4F120029E
:1004000020FA04F001FA02F340EA030021FA04F3AF
:1004100045EA030130BDC4F10C04C4F1200220FA06
:1004200002F001FA04F340EA0300294630BD21FA44
:1004300004F0294630BD94F0000F83F4801306BF0A
:1004400081F480110134013D4EE77FEA645C18BFFE
:100450007FEA655C29D094EA050F08BF90EA020F95
:1004600005D054EA000C04BF1946104630BD91EA8D
:10047000030F1EBF0021002030BD5FEA545C05D190
:100480004000494128BF41F0004130BD14F58004CF
:100490003CBF01F5801130BD01F0004545F0FE4143
:1004A00041F470014FF0000030BD7FEA645C1ABF78
:1004B000194610467FEA655C1CBF0B46024650EAAF
:1004C000013406BF52EA033591EA030F41F40021DB
:1004D00030BD00BF90F0000F04BF0021704730B561
:1004E0004FF4806404F132044FF000054FF0000136
:1004F00050E700BF90F0000F04BF0021704730B5F7
:100500004FF4806404F1320410F0004548BF4042CB
:100510004FF000013EE700BF42004FEAE2014FEA20
:1005200031014FEA02701FBF12F07F4393F07F4FFB
:1005300081F06051704732F07F4208BF704793F0FE
:100540007F4F04BF41F40021704730B54FF4607411
:1005500001F0004521F000411CE700BF50EA010214
:1005600008BF704730B54FF000050AE050EA0102BD
:1005700008BF704730B511F0004502D5404261EB2D
:1005800041014FF4806404F132045FEA915C3FF46E
:10059000D8AE4FF003025FEADC0C18BF03325FEA0B
:1005A000DC0C18BF033202EBDC02C2F1200300FABC
:1005B00003FC20FA02F001FA03FE40EA0E0021FAE1
:1005C00002F11444BDE600BF70B54FF0FF0C4CF4CF
:1005D000E06C1CEA11541DBF1CEA135594EA0C0F81
:1005E00095EA0C0F00F0DEF82C4481EA030621EABC
:1005F0004C5123EA4C5350EA013518BF52EA0335F7
:1006000041F4801143F4801338D0A0FB02CE4FF0A8
:100610000005E1FB02E506F00042E0FB03E54FF0D8
:100620000006E1FB03569CF0000F18BF4EF0010ED0
:10063000A4F1FF04B6F5007F64F5407404D25FEACC
:100640004E0E6D4146EB060642EAC62141EA55517F
:100650004FEAC52040EA5E504FEACE2EB4F1FD0CC1
:1006600088BFBCF5E06F1ED8BEF1004F08BF5FEA3F
:10067000500E50F1000041EB045170BD06F00046F1
:1006800046EA010140EA020081EA0301B4EB5C049E
:10069000C2BFD4EB0C0541EA045170BD41F4801196
:1006A0004FF0000E013C00F3AB8014F1360FDEBFBB
:1006B000002001F0004170BDC4F10004203C35DA97
:1006C0000C341BDC04F11404C4F1200500FA05F31A
:1006D00020FA04F001FA05F240EA020001F00042BB
:1006E00021F0004110EBD37021FA04F642EB060131
:1006F0005EEA430E08BF20EAD37070BDC4F10C045B
:10070000C4F1200500FA04F320FA05F001FA04F21E
:1007100040EA020001F0004110EBD37041F100010A
:100720005EEA430E08BF20EAD37070BDC4F1200515
:1007300000FA05F24EEA020E20FA04F301FA05F27D
:1007400043EA020321FA04F001F0004121FA04F225
:1007500020EA020000EBD3705EEA430E08BF20EAF5
:10076000D37070BD94F0000F0FD101F0004640002F
:1007700041EB010111F4801F08BF013CF7D041EAB1
:10078000060195F0000F18BF704703F000465200B5
:1007900043EB030313F4801F08BF013DF7D043EA86
:1007A0000603704794EA0C0F0CEA135518BF95EA3C
:1007B0000C0F0CD050EA410618BF52EA4306D1D1C3
:1007C00081EA030101F000414FF0000070BD50EAE2
:1007D000410606BF1046194652EA430619D094EA6C
:1007E0000C0F02D150EA013613D195EA0C0F05D156
:1007F00052EA03361CBF104619460AD181EA0301AA
:1008000001F0004141F0FE4141F470014FF0000061
:1008100070BD41F0FE4141F4780170BD70B54FF0FC
:10082000FF0C4CF4E06C1CEA11541DBF1CEA13557C
:1008300094EA0C0F95EA0C0F00F0A7F8A4EB05045E
:1008400081EA030E52EA03354FEA013100F0888055
:100850004FEA03334FF0805545EA131343EA12631E
:100860004FEA022245EA111545EA10654FEA0026D3
:100870000EF000419D4208BF964244F1FD0404F58C
:10088000407402D25B084FEA3202B61A65EB0305E8
:100890005B084FEA32024FF480104FF4002CB6EBA5
:1008A000020E75EB030E22BFB61A754640EA0C0025
:1008B0005B084FEA3202B6EB020E75EB030E22BF65
:1008C000B61A754640EA5C005B084FEA3202B6EBA6
:1008D000020E75EB030E22BFB61A754640EA9C0065
:1008E0005B084FEA3202B6EB020E75EB030E22BF35
:1008F000B61A754640EADC0055EA060E18D04FEAF3
:10090000051545EA16754FEA06164FEAC30343EA92
:1009100052734FEAC2025FEA1C1CC0D111F4801F5F
:100920000BD141EA00014FF000004FF0004CB6E758
:1009300011F4801F04BF01430020B4F1FD0C88BFF7
:10094000BCF5E06F3FF6AFAEB5EB030C04BFB6EB02
:10095000020C5FEA500C50F1000041EB045170BDF5
:100960000EF0004E4EEA113114EB5C04C2BFD4EB22
:100970000C0541EA045170BD41F480114FF0000EA6
:10098000013C90E645EA060E8DE60CEA135594EA22
:100990000C0F08BF95EA0C0F3FF43BAF94EA0C0F25
:1009A0000AD150EA01347FF434AF95EA0C0F7FF49A
:1009B00025AF104619462CE795EA0C0F06D152EAEE
:1009C00003353FF4FDAE1046194622E750EA4106D2
:1009D00018BF52EA43067FF4C5AE50EA41047FF4E3
:1009E0000DAF52EA43057FF4EBAE12E74FF0FF3C48
:1009F00006E000BF4FF0010C02E000BF4FF0010C19
:100A00004DF804CD4FEA410C7FEA6C5C4FEA430C91
:100A100018BF7FEA6C5C1BD001B050EA410C0CBFE0
:100A200052EA430C91EA030F02BF90EA020F002042
:100A3000704710F1000F91EA030F58BF994208BFA9
:100A400090422CBFD8176FEAE37040F00100704766
:100A50004FEA410C7FEA6C5C02D150EA013C07D1BD
:100A60004FEA430C7FEA6C5CD6D152EA033CD3D008
:100A70005DF8040B704700BF8446104662468C4602
:100A80001946634600E000BF01B5FFF7B7FF002835
:100A900048BF10F1000F01BD4DF808EDFFF7F4FF5E
:100AA0000CBF012000205DF808FB00BF4DF808EDE9
:100AB000FFF7EAFF34BF012000205DF808FB00BF0C
:100AC0004DF808EDFFF7E0FF94BF012000205DF82E
:100AD00008FB00BF4DF808EDFFF7CEFF94BF0120E3
:100AE00000205DF808FB00BF4DF808EDFFF7C4FFDC
:100AF00034BF012000205DF808FB00BF4FEA410C25
:100B00007FEA6C5C02D150EA013C0AD14FEA430C07
:100B10007FEA6C5C02D152EA033C02D14FF0000044
:100B200070474FF0010070474FEA410212F5001282
:100B300015D211D56FF47873B3EB625212D94FEA24
:100B4000C12343F0004343EA505311F0004F23FA0E
:100B500002F018BF404270474FF00000704750EA63
:100B6000013005D111F0004008BF6FF00040704720
:100B70004FF00000704700BF53B94AB9002908BFC1
:100B800000281CBF4FF0FF314FF0FF3000F088B954
:100B9000ADF1080C6DE904CE00F006F8DDF804E0D4
:100BA000DDE9022304B070472DE9F047089D8E4629
:100BB00004468846002B4AD18A42174662D9B2FAC7
:100BC00082F64EB1C6F1200301FA06F820FA03F3CB
:100BD000B74043EA0808B4404FEA174E1FFA87FCB3
:100BE000B8FBFEF1230C0EFB118843EA084301FB1E
:100BF0000CF29A4209D9FB1801F1FF3080F0EA802B
:100C00009A4240F2E78002393B449A1AA3B2B2FBFF
:100C1000FEF00EFB102243EA024300FB0CFC9C4555
:100C200009D9FB1800F1FF3280F0D6809C4540F2D4
:100C3000D3803B44023840EA0140A3EB0C0300217F
:100C40001DB1F3400022C5E90032BDE8F0878B42B8
:100C500005D90DB1C5E9000100210846F5E7B3FA51
:100C600083F1002946D1734502D3824200F2058107
:100C7000841A6EEB030201209046002DE5D0C5E9F1
:100C80000048E2E7002A00F09080B2FA82F6002ED7
:100C900040F0A4808A1A030C4FEA174E80B2BCB20F
:100CA0000121B2FBFEFC0EFB1C2243EA024304FBC3
:100CB0000CF29A4207D9FB180CF1FF3802D29A4283
:100CC00000F2E080C4469B1AB3FBFEF20EFB123327
:100CD00040EA034302FB04F49C4207D9FB1802F1EB
:100CE000FF3002D29C4200F2CA8002461B1B42EA3D
:100CF0000C40A5E7C1F120068B4022FA06F71F43FE
:100D00000EFA01F420FA06F32EFA06FE4FEA17490E
:100D1000234300FA01F81FFA87FCBEFBF9F01C0C14
:100D200009FB10EE44EA0E4400FB0CFEA64502FA55
:100D300001F209D93C1900F1FF3A80F09C80A645E8
:100D400040F2998002383C44A4EB0E041FFA83FE63
:100D5000B4FBF9F309FB13444EEA044403FB0CFC17
:100D6000A44508D93C1903F1FF3E80F08280A445D8
:100D70007FD9023B3C4443EA0040A4EB0C04A0FBB7
:100D800002EC64457346E14662D35FD05DB1B8EBD7
:100D9000030264EB090404FA06F622FA01F31E4387
:100DA000CC40C5E9006400214FE7B1FBF2FC010C27
:100DB00041EA0E4180B240EA01423B4638463C4699
:100DC000B846BE462026B1FBF7F1A2EB080241EA85
:100DD0000C4166E7014618E710462CE7C6F12002F1
:100DE0002EFA02F3B740B14020FA02F24FEA174E52
:100DF0000A43B3FBFEF8BCB20EFB1833110C41EAF8
:100E0000034108FB04F9B04089454FEA104380B222
:100E10003ED9791808F1FF3C01D289451FD8A1EBD2
:100E20000901B1FBFEF909FB04F80EFB191192B29E
:100E300042EA0142424529D2BA1809F1FF31C4D22F
:100E40004245C2D2A9F102013A44BEE7F0459DD223
:100E5000BEEB02036CEB070C0138E14696E7A7EB0B
:100E600009094944A8F1020CB1FBFEF909FB04F899
:100E7000DBE773467FE7504666E70846FDE63B44FE
:100E8000023A33E7ACF1020C3B441CE749469CE7CD
:100E9000A1EB0901C446B1FBFEF909FB04F8C4E764
:100EA000704700BF80B483B000AF7860044A7B68AD
:100EB000136000BF0C37BD465DF8047B704700BF70
:100EC0007002002080B483B000AF0346FB71FB7951
:100ED000002B02D0044AFB79137000BF0C37BD46CB
:100EE0005DF8047B704700BF0800002090B589B012
:100EF00002AFF860B96011461A460B46FB71134603
:100F0000BB71FB797E2B00F2A3800023FB7596E07A
:100F1000514B1A68FB79203B4F4909680131097828
:100F200003FB01F1FB7D0B44023313441B78BB75BB
:100F300000237B7578E0BB7D03F00103002B32D0EA
:100F4000464B1B78012B13D1FB7D9AB2FB689BB2F9
:100F500013449BB218B297F915309AB2BB689BB292
:100F600013449BB21BB2BA79194600F073FA52E0EF
:100F7000FB7D3A4A127803FB02F2FB68D01897F91E
:100F80001530364A127803FB02F2BB68D118334B96
:100F90001B781A46314B1B781C46BB7900932346BD
:100FA00000F060F937E097F82830002B33D12B4B55
:100FB0001B78012B14D1FB7D9AB2FB689BB21344C2
:100FC0009BB218B297F915309AB2BB689BB2134422
:100FD0009BB21BB297F82820194600F03BFA1AE0A2
:100FE000FB7D1E4A127803FB02F2FB68D01897F9CA
:100FF00015301A4A127803FB02F2BB68D118174B5E
:101000001B781A46154B1B781C4697F8283000931E
:10101000234600F027F997F91530DBB20133DBB234
:101020007B75BB7D5B08BB7597F915300A4A126862
:1010300012789342FFF67FAFFB7D0133FB75064BC1
:101040001B6801331B78FA7D9A42FFF461AF00E020
:1010500000BF1C37BD4690BD700200200800002074
:1010600080B588B002AFF860B9607A60FB70FB6849
:101070007B617B681B78FB743EE0F978FA7C97F81B
:10108000203000930B46B9687869FFF72FFF204B9B
:101090001B6801331B781A461E4B1B7802FB03F3B7
:1010A00001337A6913447B6197F82030002B20D1FB
:1010B0000023BB7412E07B699BB2013B9BB218B268
:1010C000BB7C9AB2BB689BB213449BB21BB200229A
:1010D000194600F0BFF9BB7C0133BB74BA7C0C4BE2
:1010E0001B681B7819460B4B1B7801FB03F39A42D4
:1010F000E1DB7B681B78FB747B685A1C7A601B7889
:10110000002BBAD100BF00BF1837BD4680BD00BF5D
:10111000700200200800002080B58CB000AFF8609D
:10112000B9607A603B603A68BB68D31A83EAE372BD
:10113000A2EBE3727968FB68CB1A002BB8BF5B4265
:101140009A42CCBF01230023DBB27B85B7F92A305A
:10115000002B0BD0FB687B62BB68FB607B6ABB60CB
:101160007B683B623B687B603B6A3B60FA687B68FC
:101170009A420BDDFB68FB617B68FB60FB697B606F
:10118000BB68BB613B68BB60BB693B607B689AB274
:10119000FB689BB2D31A9BB2FB823A68BB68D31A36
:1011A000002BB8BF5B42BB82B7F91630DA0F13448D
:1011B0005B10FB85BA683B689A4202DA0123BB8563
:1011C00030E04FF6FF73BB852CE0B7F92A30002BD7
:1011D00009D0BB681BB2FA6811B297F838201846DC
:1011E00000F038F908E0FB681BB2BA6811B297F852
:1011F0003820184600F02EF9FA8DBB8AD31A9BB21C
:10120000FB85B7F92E30002B09DAB7F92C30BA6814
:101210001344BB60FA8DFB8A13449BB2FB85FB68C9
:101220000133FB60FA687B689A42CEDD00BF00BFE5
:101230003037BD4680BD80B586B002AFF860B9607A
:101240007A60FB70BA687B6813445A1EFB7800937F
:101250001346FA68B968F868FFF75EFF00BF1037F9
:10126000BD4680BD80B586B000AFF860B96011465C
:101270001A460B46FB801346BB80FB687B6109E086
:10128000BA8897F82030B9687869FFF7D4FF7B698E
:1012900001337B61FA88FB6813447A699A42EFDB79
:1012A00000BF00BF1837BD4680BD000080B586B0C6
:1012B00004AF0346FB71084B1868642302930123B3
:1012C0000193FB1D009301230022782105F0AEFA63
:1012D00000BF0837BD4680BD7402002080B582B0D3
:1012E00000AF0346FB71FB79012B01D90123FB7190
:1012F000FB7903F00103DBB263F05F03DBB2184656
:10130000FFF7D4FF97F90730DB005BB203F0080367
:101310005BB263F03F035BB2DBB21846FFF7C6FF78
:1013200000BF0837BD4680BD80B582B000AF034620
:10133000FB71FB79002B01D0AF2300E0AE231846F0
:10134000FFF7B4FF00BF0837BD4680BD80B582B04F
:1013500000AF0346FB718120FFF7A8FFFB79184619
:10136000FFF7A4FF00BF0837BD4680BD80B500AFC2
:101370002E20FFF79BFF00BF80BD80B500AF23206C
:10138000FFF794FF0020FFF791FF00BF80BD80B5FD
:1013900000AFAE20FFF78AFF0020FFF787FF102085
:1013A000FFF784FF4020FFF781FF2020FFF77EFF3B
:1013B0000020FFF77BFFFF20FFF7C8FF0120FFF7AA
:1013C0008DFFA620FFF772FFA820FFF76FFF3F20D9
:1013D000FFF76CFFD320FFF769FF0020FFF766FFE0
:1013E000D520FFF763FF8020FFF760FFD920FFF7CC
:1013F0005DFF2220FFF75AFFDA20FFF757FF122088
:10140000FFF754FFDB20FFF751FF4020FFF74EFFAF
:101410008D20FFF74BFF1420FFF748FFA420FFF7B4
:1014200045FFFFF7A3FFFFF7A8FF0120FFF77CFFB1
:1014300000BF80BD80B582B000AF7860044A7B6891
:101440001360FFF7A4FF00BF0837BD4680BD00BF93
:101450007402002080B483B000AF0346FB800B46CB
:10146000BB801346FB70B7F90630002B79DBB7F968
:1014700006307F2B75DCB7F90430002B71DBB7F930
:1014800004303F2B6DDCFB78022B49D0022B69DC4A
:10149000002B22D0012B65D1B7F90620B7F9043013
:1014A000002B00DA0733DB1018B20346DB011344CC
:1014B0002F4AD35C5AB2BB8803F00703012101FA1B
:1014C00003F35BB2134359B2B7F906200346DB01BD
:1014D0001344C9B2264AD15444E0B7F90620B7F9FB
:1014E0000430002B00DA0733DB1018B20346DB01AF
:1014F00013441F4AD35C5AB2BB8803F0070301218F
:1015000001FA03F35BB2DB435BB2134059B2B7F9A4
:1015100006200346DB011344C9B2154AD15421E029
:10152000B7F90620B7F90430002B00DA0733DB10D7
:1015300018B20346DB0113440D4AD35C5AB2BB8890
:1015400003F00703012101FA03F35BB2534059B2E0
:10155000B7F906200346DB011344C9B2044AD1544B
:1015600000E000BF0C37BD465DF8047B704700BF4C
:101570007802002080B582B000AF0346FB71FB7992
:10158000002B08D0012B0DD14FF48062FF210748BA
:101590000EF0AEF906E04FF48062002103480EF031
:1015A000A7F900BF00BF0837BD4680BD7802002004
:1015B00080B584B004AF2220FFF778FE0020FFF74B
:1015C00075FE0720FFF772FE084B1868642302932C
:1015D0004FF480630193064B00930123402278214E
:1015E00005F024F900BFBD4680BD00BF7402002095
:1015F0007802002080B586B004AF78602220FFF723
:1016000055FE0020FFF752FE0720FFF74FFE094B63
:101610001868642302934FF4806301937B680093FE
:1016200001234022782105F001F900BF0837BD46AB
:1016300080BD00BF7402002080B483B000AF78602A
:10164000064BD3F8902005497B681343C1F89030CE
:1016500000BF0C37BD465DF8047B7047000800589A
:1016600080B485B000AF78604FF0B043DA6C4FF0D3
:10167000B0417B681343CB644FF0B043DA6C7B68B6
:101680001340FB60FB6800BF1437BD465DF8047B68
:10169000704780B485B000AF78604FF0B043D3F8A6
:1016A0004C214FF0B0417B681343C1F84C314FF0EF
:1016B000B043D3F84C217B681340FB60FB6800BF4C
:1016C0001437BD465DF8047B704780B500AF04F069
:1016D00013F904F017F94FF48030FFF7ADFF0BF06A
:1016E0008BF900F021F800F0C1F800BF80BD0000C8
:1016F000B0B588B000AF0B4B3C1D1D460FCD0FC4DD
:1017000095E8070003C422800234130C23700CF008
:10171000C3FE3B1D18460BF014FD00BF2037BD462D
:10172000B0BD00BFE819010880B588B000AF3B1D0F
:1017300000221A605A609A60DA601A610023BB8343
:1017400000237B8300233B830023FB7736E0FB7F72
:10175000434ADB0013449B79002B2CD0FB7F404A8B
:1017600052F833303F4A93421BD03E4A934221D82D
:10177000B3F1904F03D03C4A934209D01AE0FB7F6B
:10178000374ADB0013449A88BB8B1343BB8312E0B8
:10179000FB7F334ADB0013449A887B8B13437B83A4
:1017A00009E0FB7F2E4ADB0013449A883B8B1343EE
:1017B0003B8300E000BFFB7F0133FB77FB7F252BE2
:1017C000C5D90023FB600123BB6003233B61BB8BB6
:1017D000002B14D0BB8B7B600120FFF741FF012061
:1017E000FFF757FF3B1D19464FF0904004F0BEFD38
:1017F000BB8B002219464FF0904004F027FF7B8BF3
:10180000002B12D07B8B7B600220FFF729FF022088
:10181000FFF73FFF3B1D1946134804F0A7FD7B8BE4
:1018200000221946104804F011FF3B8B002B13D007
:101830003B8B7B600420FFF713FF0420FFF729FF99
:101840003B1D1946074804F091FD3B8B00221946C9
:10185000044804F0FBFE00BF00BF2037BD4680BD3A
:10186000442F0108000800480004004880B400AF7D
:1018700000BFBD465DF8047B704780B500AF01F046
:10188000F7FD00BF80BD80B584B000AFF8600B46A7
:101890007A607B817A897B68F968002001F070FBAF
:1018A00000BF1037BD4680BD80B483B000AF786004
:1018B000074BD3F8803023F0070205497B681343B8
:1018C000C1F8803000BF0C37BD465DF8047B70471F
:1018D0000004005880B483B000AF7860064BD3F8A2
:1018E000902005497B681343C1F8903000BF0C3746
:1018F000BD465DF8047B70470008005880B483B093
:1019000000AF78604FF0B0430A4AC3F89C204FF014
:10191000B043D3F89C3023F47C527B681B024FF019
:10192000B0411343C1F89C3000BF0C37BD465DF891
:10193000047B7047FECAFECA80B483B000AF7860F3
:101940004FF0B0439B6823F400424FF0B0417B68F6
:1019500013438B6000BF0C37BD465DF8047B7047B6
:1019600080B400AF4FF0B043D3F890304FF0B042A6
:1019700043F48033C2F8903000BFBD465DF8047B6D
:10198000704780B400AF4FF0B043D3F890304FF0C1
:10199000B04223F48033C2F8903000BFBD465DF8FA
:1019A000047B704780B400AF4FF0B043D3F894305D
:1019B00003F08063B3F1806F01D1012300E00023C5
:1019C0001846BD465DF8047B704780B400AF4FF009
:1019D000B043D3F8943003F08053B3F1805F01D16A
:1019E000012300E000231846BD465DF8047B7047E4
:1019F00080B485B000AF78604FF0B0431A6D4FF0FF
:101A0000B0417B6813430B654FF0B0431A6D7B68A0
:101A10001340FB60FB6800BF1437BD465DF8047BD4
:101A20007047000080B400AF044B1B68C3F30B0386
:101A30001846BD465DF8047B704700BF002004E0F7
:101A400080B400AF044B1B681B0C9BB21846BD460C
:101A50005DF8047B704700BF002004E080B483B0D1
:101A600000AF786039607B685A683B681B041A4392
:101A70007B685A6000BF0C37BD465DF8047B704739
:101A800080B483B000AF786039607B685A683B6887
:101A90001A437B685A6000BF0C37BD465DF8047B73
:101AA000704780B483B000AF786039607B685A6952
:101AB0003B681B041A437B685A6100BF0C37BD4664
:101AC0005DF8047B704780B483B000AF7860396004
:101AD0007B685A693B681A437B685A6100BF0C37C0
:101AE000BD465DF8047B704780B483B000AF78607A
:101AF00039607B683A689A6000BF0C37BD465DF874
:101B0000047B704780B483B000AF786039607B6835
:101B10003A689A6100BF0C37BD465DF8047B704798
:101B200080B400AF054B1B69044A23F00403136122
:101B300000BFBD465DF8047B704700BF00ED00E0CC
:101B400080B483B000AF78607B68FF225A6200BF28
:101B50000C37BD465DF8047B704780B483B000AF9E
:101B600078607B68CA225A627B6853225A6200BF3F
:101B70000C37BD465DF8047B704780B483B000AF7E
:101B8000786039607B689B6823F007023B681A43E2
:101B90007B689A6000BF0C37BD465DF8047B7047D8
:101BA00080B500AF044B4FF400421A6100F030F8EA
:101BB00000F070F800BF80BD0040005880B500AF55
:101BC00000F07CF800F094F80949002000F032FFA2
:101BD000FFF77BFD012101200CF004FD00F0EAF984
:101BE00000F0F8F900F07AFA00F090F800BF80BD3C
:101BF000280B002080B400AF00BFBD465DF8047B19
:101C0000704780B500AF5020FFF764FE00BF80BD75
:101C100080B500AF00F004F800F01AF800BF80BDF6
:101C200080B500AFFFF7BEFE0346002B0DD0FFF7D7
:101C3000CCFE0346002B08D105F098FA05F096FA81
:101C4000FFF78EFEFFF79DFE00BF00BF80BD0000C6
:101C500080B500AF4FF48010FFF7CAFE3F210C485B
:101C6000FFF742FF3F210A48FFF74CFF3F2108489A
:101C7000FFF7F4FE3F210648FFF713FF3F2104481A
:101C8000FFF7FEFE3F210248FFF71DFF00BF80BDAA
:101C9000000C005880B582B000AF00200BF0E6F8D1
:101CA00078607B68002B05D07B689B791846FFF72E
:101CB00025FE00BF00BF0837BD4680BD80B500AF20
:101CC000FFF798FFFFF79DFF00F002F800BF80BD0F
:101CD00080B500AF0548FFF740FF00210348FFF73C
:101CE0004CFF0248FFF72CFF00BF80BD00280040DA
:101CF00080B500AF4FF40040FFF71EFE0CF060FC13
:101D00000420FFF7D1FD00BF80BD000080B588B082
:101D100000AF0CF007FA114A002140200CF014FE2D
:101D20000F4B3B600F4B7B603B4619460E480BF058
:101D3000E3FA0E4BBB600E4BFB600E4B3B6140F277
:101D40003C537B6107F1080318460CF031FB0CF0A3
:101D5000E3F900BF2037BD4680BD00BF31D3000886
:101D600034070320791D0008911D00084C09032049
:101D700040080320F801032080B483B000AF03467D
:101D8000FB7100BF0C37BD465DF8047B7047000057
:101D900080B588B000AF78607B685B680B33FB610F
:101DA000FB691B889BB2A3F51243072B60D801A2E5
:101DB00052F823F0D51D0008171E0008251E000844
:101DC000711E0008411E0008511E0008591E00081F
:101DD000691E000807F10C0318460BF0DFF93B7B86
:101DE00019467B7B1A46BB7B24480DF00FFC3B7CDD
:101DF000194623480DF00AFCBB7D1946FB7D1A46A7
:101E00003B7E20480DF002FC1F480DF0FFFB786878
:101E100000F070F82DE01D480DF0F8FB786800F038
:101E200043F826E01A480DF061FCFB69023319689B
:101E3000FB6902335B681A4616480DF0E7FB18E0B1
:101E4000FB6902331B68194613480DF0DFFB10E0F5
:101E500012480DF0DBFB0CE0FB6902331B681946EE
:101E60000F480DF0D3FB04E00E480DF0CFFB00E06F
:101E700000BF00BF2037BD4680BD00BF041A010867
:101E8000281A0108441A01085C1A01087C1A010882
:101E9000A01A0108F01A0108181B0108541B0108B8
:101EA000781B0108B41B010880B584B000AF7860CE
:101EB0007B685B680B33FB60FB680233BB60BB680D
:101EC0001B78194608480DF0A1FBBB681B78002B56
:101ED00003D106480DF00AFC03E005480DF006FCAE
:101EE00000BF1037BD4680BDD81B0108081C010883
:101EF000441C010880B58AB000AF786007F1080380
:101F000000221A605A609A60DA6000237B62002324
:101F10003B627B685B680B33FB61FB690233BB612F
:101F2000BB691B78002B28D11D480DF0DFFBFFF7A4
:101F3000DFFB0F233B727F23BB72FFF781FD7862CB
:101F4000796A18480DF062FB7B6A9BB2BB82FFF78F
:101F500069FD3862396A14480DF058FB3B6A9BB240
:101F6000FB8207F1080318460BF002F901F064FF49
:101F7000002101200CF036FB0EE0BB691B78012B21
:101F800006D10A480DF042FB7B6800221A7003E07C
:101F900007480DF03BFB00BF2837BD4680BD00BFA2
:101FA0007C1C0108981C0108BC1C0108DC1C0108F1
:101FB000101D010880B500AF002003F0B7FA012022
:101FC00003F0B4FA022003F0B1FA012003F0E8FABA
:101FD00000BF80BD80B500AF0121002003F014FBDD
:101FE0000121012003F010FB0121022003F00CFB72
:101FF00000BF80BD80B584B000AF786003F058FCAE
:10200000B8607B68FB60FB68B3F1FF3F0AD003F068
:1020100067FC03461A46FB681344FB6002E0FFF7C7
:102020007FFD30BF03F044FC0246BB68D31AFA6858
:102030009A42F4D800BF00BF1037BD4680BD80B5BE
:1020400000AF4FF0FF300CF0FDFA00BF80BD80B450
:1020500000AF00BFBD465DF8047B704780B582B01D
:1020600000AF7860002140200CF090FC00BF0837E2
:10207000BD4680BD80B582B000AF786002200CF014
:10208000F1FC00BF0837BD4680BD80B582B000AF0F
:10209000786002200CF006FD00BF0837BD4680BD09
:1020A00080B582B000AF0346FB80FB88102B06D0C2
:1020B000102B0DDC012B05D0022B06D008E002F01E
:1020C000D7F906E002F0DAF903E002F0DFF900E008
:1020D00000BF00BF0837BD4680BD000080B500AF1F
:1020E000034B01220349002000F010FF00BF80BD18
:1020F000F92000088006002080B500AF154B1B8832
:10210000FF2B1ED8144B1B780D2B0FD113491448ED
:102110000DF07CFA00F028F80E4B00221A804FF4E4
:10212000807200210D480DF0E3FB0AE0094B1B888B
:102130005A1C91B2074A11801A46074B1978074B6F
:102140009954084B01220449002000F0DFFE00BF33
:1021500080BD00BF88070020800600208806002080
:10216000441D0108F920000880B500AF1C491D4836
:10217000FEF706F80346002B09D11B480DF0B6FA0E
:102180001A4B1B4A1A60194804F0CEF826E0194988
:102190001448FDF7F5FF0346002B0AD116480DF051
:1021A000A5FA124B4FF0B0521A60104804F0BCF878
:1021B00014E012490B48FDF7E3FF0346002B09D159
:1021C0000F480DF093FA094B0E4A1A60074804F0C5
:1021D000ABF803E003490C480DF018FA00BF80BDCE
:1021E000541D010888060020581D010878060020AB
:1021F00004000016601D0108641D01086C1D010823
:10220000701D010801000016781D010880B483B01C
:1022100000AF7860064BD3F8802005497B681343F4
:10222000C1F8803000BF0C37BD465DF8047B7047B5
:102230000008005880B483B000AF7860054B1A687E
:1022400004497B6813430B6000BF0C37BD465DF843
:10225000047B70470008005880B483B000AF0D4B7A
:102260009B6A9BB27B600B4B9B6A9BB23B6005E019
:102270003B687B60074B9B6A9BB23B607A683B681C
:102280009A42F5D13B6818460C37BD465DF8047B91
:10229000704700BF0028004080B485B000AF0346FF
:1022A0000A46FB711346BB71BA791D4913465B00A0
:1022B0001344DB000B4415331B78FB73FB7B062BAD
:1022C00009D0FA7B164913465B001344DB000B442C
:1022D0001433FA791A70FA79114913465B001344E2
:1022E000DB000B441533FA7B1A70FA790C4913465C
:1022F0005B001344DB000B441433BA791A70BA79CB
:10230000074913465B001344DB000B441533FA798D
:102310001A7000BF1437BD465DF8047B704700BFDC
:102320008C07002080B485B000AF03460A46FB71DD
:102330001346BB71294B1B78DBB2BA799A4232D073
:10234000BA79274913465B001344DB000B4414336E
:102350001B78FB73FA7B224913465B001344DB00B6
:102360000B441533FA791A70FA791D4913465B004C
:102370001344DB000B441533BA791A70FA79184903
:1023800013465B001344DB000B441433FA7B1A70D2
:10239000BA79134913465B001344DB000B44143332
:1023A000FA791A7014E0FA790D4913465B00134468
:1023B000DB000B441533BA791A70BA790849134611
:1023C0005B001344DB000B441433FA791A7000BF2E
:1023D0001437BD465DF8047B704700BF1C08002021
:1023E0008C07002080B584B000AF0346FB714E4BD4
:1023F0001B78DBB2062B18D14B4B1B78DAB24B4B58
:102400001A70494AFB791370FA79494913465B00FF
:102410001344DB000B44153306221A70454B4FF072
:10242000FF321A600023FB8178E000F009F90346CF
:10243000FB81FA793E4913465B001344DB000B44F1
:1024400008331968FB89FA791944394813465B0047
:102450001344DB00034408331960FA793449134606
:102460005B001344DB000B4408331B68BB602E4B3E
:102470001B78DBB219462E4A0B465B000B44DB008F
:10248000134408331B68BA689A4237D3264B1B782B
:102490007B737A7B264913465B001344DB000B44B5
:1024A00015331B783B7313E07A7B214913465B009D
:1024B0001344DB000B4415331B787B737A7B1C4978
:1024C00013465B001344DB000B4415331B783B734E
:1024D0003B7B062B0BD03A7B154913465B0013441C
:1024E000DB000B4408331B68BA689A42DCD27A7B63
:1024F000FB7911461846FFF7CFFE0FE00A4B1B7819
:10250000DAB2FB7911461846FFF70CFF064B1B7831
:10251000DAB2064B1A70044AFB791370FB8918462D
:102520001037BD4680BD00BF1C0800201D080020DC
:102530008C0700202008002080B485B000AF03463F
:102540000A46FB711346BB71394B1B78DBB2FA7933
:102550009A4211D1364B1B78DAB2364B1A70FA799F
:10256000354913465B001344DB000B4415331B78DD
:10257000DAB22F4B1A703EE0FA792F4913465B000E
:102580001344DB000B4414331B78FB73FA792A499C
:1025900013465B001344DB000B4415331B78BB73FD
:1025A000F979FA7B24480B465B000B44DB000344BB
:1025B00015331B78D8B2204913465B001344DB0067
:1025C0000B44153302461A70BB7B062B13D0F979E6
:1025D000BA7B19480B465B000B44DB000344143301
:1025E0001B78D8B2144913465B001344DB000B443C
:1025F000143302461A70FA790F4913465B001344EC
:10260000DB000B440C3301221A70094B1B78DBB240
:10261000062B07D1BB79002B04D1084B4FF0FF32BA
:102620001A6000BF00BF1437BD465DF8047B7047D9
:102630001C0800201D0800208C0700202008002016
:1026400080B582B000AF1A4B1B68B3F1FF3F26D0B4
:10265000FFF702FE7860164B1B687A689A4205D82D
:10266000134B1A687B68D31A7B600AE0114B1B88F6
:102670001A467B68D31A3B600D4B1B683A681344BB
:102680007B600D4B1B781A467B6802FB03F37B6073
:102690000A4B1B781A467B68D3407B6001E000231D
:1026A0007B607B689BB218460837BD4680BD00BF83
:1026B00020080020280800202608002025080020E7
:1026C00080B582B000AF0346FB80FB88002B08D1A9
:1026D000FFF7C2FD0346214A1360032003F095FA79
:1026E00039E0FB88012B03D81D4B1B78012B02D04E
:1026F000FB88013BFB8000BF1A4B1B68DB6803F0C3
:102700000403002BF8D0174B1B68DB68DAB2154BBB
:102710001B6862F49062DA60134B4FF40022DA60B7
:10272000032003F080FA114B5B691B0C1B04FA8831
:102730000E4913434B61FFF78FFD0346074A1360B1
:10274000084B1B689A68074B1B6842F480629A60CA
:10275000AFF3008000BF0837BD4680BD20080020D1
:1027600025080020280B0020000800580028004001
:1027700080B584B000AF454B9B6803F48063B3F52C
:10278000806F07D100BF424B1B68DB6803F0040376
:10279000002BF8D13E4B1B689A683D4B1B6822F416
:1027A00080629A603B4B1B78FB73FA7B3A49134675
:1027B0005B001344DB000B4408331B68BB60FFF76E
:1027C0003FFF0346FB80FB88BA689A4205D200238C
:1027D000BB81324B01221A704DE0FB88304A1288CF
:1027E00092B213441A46BB68934206D92C4B1B88FD
:1027F000BB812A4B00221A703DE0BB689AB2FB886D
:10280000D31ABB81254B01221A7034E0FA7B22498E
:1028100013465B001344DB000B4408331A68FB8843
:102820009A420AD2FA7B1C4913465B001344DB0030
:102830000B44083300221A6013E0FA7B1649134652
:102840005B001344DB000B4408331968FB88FA7BF8
:10285000C91A114813465B001344DB0003440833D4
:102860001960FA7B0C4913465B001344DB000B44F0
:1028700015331B78FB73FB7B062BC7D1BB8918462E
:10288000FFF71EFF00BF1037BD4680BD0028004087
:10289000280B00201C0800208C07002024080020A2
:1028A0002A08002080B58AB000AFEFF310837B6167
:1028B0007B697B6272B600BF594B1B68CA225A62A1
:1028C000574B1B6853225A62554B1B689A68544BEE
:1028D0001B6822F480629A60524B1B7887F8233081
:1028E00097F82320504913465B001344DB000B4448
:1028F0000C331B78DBB2022B6ED197F823204A49A8
:1029000013465B001344DB000B441B68FB6197F824
:102910002320454913465B001344DB000B4410336E
:102920001B68BB61414B1B78DBB2002B4CD097F886
:1029300023203D4913465B001344DB000B440D3359
:102940001B78DBB2012B24D197F8233001211846E4
:10295000FFF7F2FD7B6A3B613B6983F3108800BFA0
:1029600097F82320304913465B001344DB000B44E7
:1029700004331A6897F823301146184600F032FAEB
:10298000274B1B68CA225A62254B1B6853225A6286
:1029900012E07B6AFB60FB6883F3108800BF97F846
:1029A0002330184600F09AF91D4B1B68CA225A6260
:1029B0001B4B1B6853225A6297F82330FA69194659
:1029C000B86900F095FA22E0FFF7D2FE7B6ABB609F
:1029D000BB6883F310881AE000BF114B1B68DB68EB
:1029E00003F00403002BF8D00D4B1B68DB68DAB250
:1029F0000B4B1B6862F49062DA600D4B4FF40022BF
:102A0000DA607B6A7B607B6883F3108800BF044BCD
:102A10001B68FF225A6200BF2837BD4680BD00BF39
:102A2000280B00201C0800208C0700202408002010
:102A30000008005880B588B000AF03463960FB71CC
:102A40005E4B1B68CA225A625C4B1B6853225A6257
:102A50005B4B9B685A4A43F020039360584B9B683A
:102A6000DBB203F00703DBB2C3F10403DAB2554B68
:102A70001A70534B1B6903F4FE034FF4FE023A61D4
:102A80003A6992FAA2F2FA60FA687A617A69002ADF
:102A900001D1202203E07A69B2FA82F2D2B2D340A5
:102AA000DBB20133DAB2484B1A70454B1B699BB25B
:102AB000C3F30E039BB201339AB2444B1A80434BCB
:102AC0001B88013B404A127802FB03F3A3F5A07375
:102AD0003C4A1278D340BB61BB694FF6FE72934209
:102AE00004D93B4B4FF6FF721A8003E0BB699AB2E0
:102AF000374B1A804FF40020FFF79CFB4FF4002067
:102B0000FFF784FBFB79002B3DD1324B01221A7079
:102B1000314B4FF0FF321A600023FB770CE0FA7F55
:102B20002E4913465B001344DB000B440C33002298
:102B30001A70FB7F0133FB77FB7F052BEFD9284B06
:102B400006221A701D4B1B689A681C4B1B6822F4E6
:102B500080629A60194B1B68DB68DAB2174B1B68FE
:102B600062F49062DA601F4B4FF40022DA600320B7
:102B700003F059F8114B1B689A68104B1B6842F41C
:102B800080429A6009E00D4B1B68DB6803F48063A8
:102B9000002B02D0032003F038F8084B1B68FF22FB
:102BA0005A6200220321032002F0EDFF032003F00C
:102BB00004F800BF2037BD4680BD00BF280B0020B1
:102BC00000280040250800202608002028080020B2
:102BD0002A08002024080020200800208C0700205C
:102BE0001C0800200008005880B48BB000AFF860CB
:102BF000B9603B601346FB71002387F82630EFF382
:102C00001083FB61FB693B6272B600BF04E097F87A
:102C10002630013387F8263097F82630052B0CD85C
:102C200097F826202C4913465B001344DB000B4425
:102C30000C331B78DBB2002BE9D197F82630062B3A
:102C400038D097F82620244913465B001344DB0054
:102C50000B440C3301221A703B6ABB61BB6983F3DE
:102C6000108800BF97F826201B4913465B001344C9
:102C7000DB000B441033FA681A6097F826201649D7
:102C800013465B001344DB000B440D33FA791A70D2
:102C900097F82620104913465B001344DB000B44D1
:102CA0003A681A60BB6897F826201A70002387F8E4
:102CB000273008E03B6A7B617B6983F3108800BFA3
:102CC000012387F8273097F8273018462C37BD4660
:102CD0005DF8047B704700BF8C07002080B586B08C
:102CE00000AF0346FB71EFF31083FB60FB687B6171
:102CF00072B600BF032002F06EFF344B1B68CA227D
:102D00005A62324B1B6853225A62FA793049134691
:102D10005B001344DB000B440C331B78DBB2022B4B
:102D200042D1FB7900211846FFF706FC294B1B789E
:102D3000FB74FB7C062B2FD1274B9B6803F480632D
:102D4000B3F5806F07D100BF204B1B68DB6803F031
:102D50000403002BF8D11D4B1B689A681B4B1B68A2
:102D600022F480629A6000BF184B1B68DB6803F096
:102D70000403002BF8D0154B1B68DB68DAB2134B49
:102D80001B6862F49062DA60144B4FF40022DA6040
:102D9000032002F048FF07E0114B1B78DBB2FA7CFE
:102DA0009A4201D0FFF7E4FC084B1B68FF225A62ED
:102DB000032002F002FF7B69BB60BB6883F31088CD
:102DC00000BF00BF1837BD4680BD00BF280B0020E4
:102DD0008C0700201C080020002800400008005834
:102DE0001D08002080B586B000AF03463960FB7136
:102DF000FA793B4913465B001344DB000B440C3368
:102E00001B78DBB2022B03D1FB791846FFF766FF74
:102E1000EFF31083FB60FB687B6172B600BF032099
:102E200002F0D9FE2F4B1B68CA225A622D4B1B6839
:102E300053225A62FA792A4913465B001344DB0095
:102E40000B440C3302221A70FA79254913465B00B1
:102E50001344DB000B4408333A681A60FA792049BE
:102E600013465B001344DB000B4404333A681A60DA
:102E7000FB791846FFF7B6FA03467B821A4B1B789C
:102E80007B741A4B1B78DBB27A7C9A4202D0FFF734
:102E90006FFC13E0FA79124913465B001344DB0020
:102EA0000B44083319687B8AFA79C91A0C4813460F
:102EB0005B001344DB00034408331960094B1B68B3
:102EC000FF225A62032002F078FE7B69BB60BB6878
:102ED00083F3108800BF00BF1837BD4680BD00BF18
:102EE0008C070020280B00201C0800201D08002053
:102EF00080B584B000AFF8600B467A60FB727B68E7
:102F0000984700BF1037BD4680BD000080B584B033
:102F100000AFB9607B600346FB731346BB81FB7B4C
:102F2000002B02D0022B0DD019E00F4A7B681360F2
:102F30000E4B0F4A1A60BB891A46B9680B4806F057
:102F400095F90CE00B4A7B6813600B4B0B4A1A6037
:102F5000BB891A46B968084806F088F900BF00BF67
:102F60001037BD4680BD00BF2C080020C0090020DE
:102F700000380140340800202C0900200080004067
:102F800080B586B000AFB9607B600346FB73134623
:102F9000BB810023FB750023BB75FB7B002B02D09C
:102FA000022B0FD01DE01F4A7B6813601E4B1F4A87
:102FB0001A60BB891A46B9681B4806F0A3F9034694
:102FC000FB750EE01A4A7B6813601A4B1A4A1A60A6
:102FD000BB891A46B968174806F094F90346FB7591
:102FE00000BFFB7D032B17D801A252F823F000BFCE
:102FF00001300008073000080D30000813300008C9
:103000000023BB7509E00123BB7506E00223BB75F5
:1030100003E00323BB7500E000BFBB7D18461837F3
:10302000BD4680BD30080020C009002000380140A6
:10303000380800202C0900200080004080B582B0B4
:1030400000AF78607B681B680F4A93420AD00F4A32
:1030500093420FD10E4B1B68002B0DD00C4B1B68FD
:10306000984709E00B4B1B68002B07D0094B1B68E6
:10307000984703E000BF02E000BF00E000BF00BFD0
:103080000837BD4680BD00BF0080004000380140C9
:103090002C0800203408002080B582B000AF786092
:1030A0007B681B680F4A93420AD00F4A93420FD1A4
:1030B0000E4B1B68002B0DD00C4B1B68984709E08A
:1030C0000B4B1B68002B07D0094B1B68984703E08C
:1030D00000BF02E000BF00E000BF00BF0837BD46F0
:1030E00080BD00BF00800040003801403008002053
:1030F0003808002080B483B000AF78604FF0B04350
:10310000D3F8903023F018024FF0B0417B6813439E
:10311000C1F8903000BF0C37BD465DF8047B7047A6
:1031200080B485B000AF78604FF0B0439A6C4FF038
:10313000B0417B6813438B644FF0B0439A6C7B685B
:103140001340FB60FB6800BF1437BD465DF8047B8D
:10315000704780B485B000AF78604FF0B043DA6C50
:103160004FF0B0417B681343CB644FF0B043DA6C4F
:103170007B681340FB60FB6800BF1437BD465DF8F9
:10318000047B704780B596B002AF02F023FBFEF7D8
:1031900007FD00F09BF800F0F7F800F055F900F09B
:1031A0002CFA00F005FA00F0CFF900F0B7F900F0C2
:1031B0000BF900F0ABF900F0FBF93B48FEF73AF9E8
:1031C0003A48FEF717FA41F28830FEF713FF384805
:1031D000FDF768FE0120FDF775FE0023A7F84E30CD
:1031E0000023A7F846300023BB6400233B64FEF7AE
:1031F000E5FC6420FEF7FEFE2E4B1B889BB2002BE5
:103200000ED12C4B4FF47A721A80B7F84E30A7F8D3
:1032100046300023A7F84E30BB6C3B640023BB64F0
:10322000214B9B6B93F82530DBB2012B30D1002072
:10323000FEF7A0F90023FB631F4B1B681F4AA2FB8C
:1032400003235B09FB631E4B1B781A4607F114032B
:103250001C4918460CF052FA07F11402002300939F
:1032600001231E210A20FDF7FBFE3B46FA6B16499F
:1032700018460CF043FA3A46002300930123282114
:103280000A20FDF7EDFEFEF793F9BB6C0133BB643A
:10329000002201214FF0904003F0D8F9BB6C0133BC
:1032A000BB64FEF7CCFEA7E73C08002054320108BF
:1032B000743001084C0B0020EC0B00201F85EB51F3
:1032C000EA0B0020981D0108AC1D010880B59AB0DA
:1032D00000AF07F120034822002118460CF008FB3C
:1032E0003B1D00221A605A609A60DA601A615A61C6
:1032F0009A6103F03BFF0020FFF7FCFE214B1B68A7
:1033000023F4C0631F4A43F4007313601D4B1B6812
:1033100003F4C0633B603B6847233B624FF4803358
:103320007B620123BB624FF48073FB620123BB64A9
:1033300040233B630023FB6407F12003184604F09D
:10334000A9FA0346002B01D000F082F96F237B60BD
:103350000223BB600023FB6000233B6100237B61F1
:103360000023BB610023FB613B1D0121184604F0D3
:1033700005FE0346002B01D000F06AF900BF683754
:10338000BD4680BD0004005880B594B000AF3B46F8
:103390005022002118460CF0ABFA4FF440533B602A
:1033A0004FF480437B640223BB641023FB643B46E1
:1033B000184605F020FA0346002B01D000F048F92A
:1033C00000BF5037BD4680BD80B500AF1B4B1C4AC7
:1033D0001A601A4B1B4A5A60184B00229A60174B0E
:1033E0000122DA60154B00221A61144B00225A6147
:1033F000124B00229A61114B0022DA610F4B00221E
:103400001A620E4803F076F90346002B01D000F053
:103410001FF90021094803F08BFD0346002B01D062
:1034200000F016F90021054803F0CDFD0346002BFE
:1034300001D000F00DF900BF80BD00BF3C080020A6
:1034400000540040B47CB00080B500AF064B074A82
:103450001A60054803F004FE0346002B01D000F07B
:10346000F7F800BF80BD00BFF0080020000C005836
:1034700080B500AF234B244A1A60224B4FF4E1324F
:103480005A60204B00229A601E4B0022DA601D4BCE
:1034900000221A611B4B0C225A611A4B00229A61BE
:1034A000184B4FF40042DA61164B00221A62154B9A
:1034B00000225A62134B00229A62124805F086FEDF
:1034C0000346002B01D000F0C3F800210D4807F09F
:1034D000F6FE0346002B01D000F0BAF8002109489F
:1034E00007F02BFF0346002B01D000F0B1F8054890
:1034F00007F0ACFE0346002B01D000F0A9F800BF96
:1035000080BD00BFC00900200038014080B400AF7A
:1035100000BFBD465DF8047B7047000080B500AF7A
:10352000074B084A1A60064B00225A60044805F00F
:10353000E9FB0346002B01D000F08AF800BF80BDF4
:10354000140B00200010005880B500AF164B174A2E
:103550001A60154B00225A60134B0F229A60124BCF
:1035600047F6FF72DA60104B00221A610E4B002200
:103570009A610D4B0022DA610B4B00225A610A4816
:1035800005F0F5FB0346002B01D000F061F80022A6
:103590000021054805F0F8FC0346002B01D000F09F
:1035A00057F800BF80BD00BF280B00200028004056
:1035B00080B500AF0420FFF7B3FD0120FFF7B0FD99
:1035C0000220FFF7ADFD002200210B2002F0DBFA04
:1035D0000B2002F0F2FA00220F210E2002F0D3FAA3
:1035E0000E2002F0EAFA00220F213A2002F0CBFA74
:1035F0003A2002F0E2FA00BF80BD80B586B000AF8D
:103600003B1D00221A605A609A60DA601A61042039
:10361000FFF79FFD0220FFF79CFD0120FFF799FDBA
:10362000002201214FF0904003F010F801237B604D
:103630000123BB600023FB6000233B613B1D194657
:103640004FF0904002F092FE00BF1837BD4680BD9B
:1036500080B400AF00BFBD465DF8047B704780B406
:1036600000AF4FF0B043D3F890304FF0B04243F486
:103670000043C2F8903000BFBD465DF8047B704740
:1036800080B485B000AF78604FF0B043DA6C4FF093
:10369000B0417B681343CB644FF0B043DA6C7B6876
:1036A0001340FB60FB6800BF1437BD465DF8047B28
:1036B000704780B485B000AF78604FF0B0431A6DAA
:1036C0004FF0B0417B6813430B654FF0B0431A6D68
:1036D0007B681340FB60FB6800BF1437BD465DF894
:1036E000047B704780B485B000AF78604FF0B04382
:1036F0009A6D4FF0B0417B6813438B654FF0B04338
:103700009A6D7B681340FB60FB6800BF1437BD46B1
:103710005DF8047B704780B485B000AF78604FF0EF
:10372000B043DA6D4FF0B0417B681343CB654FF087
:10373000B043DA6D7B681340FB60FB6800BF143751
:10374000BD465DF8047B704780B485B000AF7860FB
:103750004FF0B0431A6E4FF0B0417B6813430B66D5
:103760004FF0B0431A6E7B681340FB60FB6800BFEC
:103770001437BD465DF8047B704780B500AF4FF449
:103780000020FFF796FF002200212E2002F0FBF917
:103790002E2002F012FA00BF80BD000080B59CB060
:1037A00000AF786007F15C0300221A605A609A60EB
:1037B000DA601A6107F10C035022002118460CF060
:1037C00097F87B681B682B4A93424FD10423FB6018
:1037D0004FF44033FB6207F10C03184605F00BF879
:1037E0000346002B01D0FFF733FF0220FFF748FF0D
:1037F0004FF44073FB6512233B6600237B66002376
:10380000BB660423FB6607F15C0319461A4802F005
:10381000ADFD4FF40010FFF765FF184B184A1A6012
:10382000164B0B225A60154B10229A60134B002244
:10383000DA60124B80221A61104B00225A610F4B42
:1038400000229A610D4B0022DA610C4B00221A62B1
:103850000A4802F0F7F90346002B01D0FFF7F8FE03
:103860007B68064A9A63054A7B68936200BF70379B
:10387000BD4680BD00540040000400489008002070
:103880000800024080B582B000AF78607B681B689A
:103890000D4A934213D14FF48010FFF70AFF002224
:1038A00000212C2002F06FF92C2002F086F9002272
:1038B00000212D2002F067F92D2002F07EF900BFD3
:1038C0000837BD4680BD00BF000C005880B5A0B0D1
:1038D00000AF786007F16C0300221A605A609A60AA
:1038E000DA601A6107F10C035022002118460BF030
:1038F000FFFF7B681B68684A93426ED10223FB601E
:103900000023BB6207F10C03184604F074FF034662
:10391000002B01D0FFF79CFE0120FFF7FCFE0120E9
:10392000FFF7AEFE0C23FB6602233B6700237B6799
:103930000323BB670823FB6707F16C0319464FF0AD
:10394000904002F013FD554B554A1A60534B11221B
:103950005A60524B10229A60504B0022DA604F4B53
:1039600080221A614D4B00225A614C4B00229A6111
:103970004A4B0022DA61494B00221A62474802F0A2
:1039800061F90346002B01D0FFF762FE4FF0885328
:10399000FB6500233B66002387F86430002387F82B
:1039A00065300123BB6607F15C0319463B4802F012
:1039B0007BFC0346002B01D0FFF74AFE7B68374AA9
:1039C000DA67364A7B68936200220021252002F0E4
:1039D000DAF8252002F0F1F85AE07B681B68314ADA
:1039E000934255D10123FB6000237B6207F10C0356
:1039F000184604F000FF0346002B01D0FFF728FE15
:103A00004FF48040FFF7A0FE0220FFF739FEC023ED
:103A1000FB6602233B6701237B670323BB67072306
:103A2000FB6707F16C0319461F4802F09FFC1F4B10
:103A30001F4A1A601D4B0F225A601C4B10229A60BD
:103A40001A4B0022DA60194B80221A61174B0022B0
:103A50005A61164B00229A61144B0022DA61134B13
:103A600000221A62114802F0EDF80346002B01D043
:103A7000FFF7EEFD7B680D4ADA670C4A7B689362BC
:103A800000220021242002F07EF8242002F095F884
:103A900000BF8037BD4680BD00800040540A002032
:103AA000440002400038014000040048B40A0020ED
:103AB0004404024080B596B000AF786007F1080377
:103AC0005022002118460BF013FF7B681B680D4A3B
:103AD000934213D14FF40073BB604FF080533B64AB
:103AE00007F10803184604F086FE0346002B01D0B8
:103AF000FFF7AEFD4FF48020FFF7DBFD00BF583726
:103B0000BD4680BD0010005880B596B000AF78600B
:103B100007F108035022002118460BF0E9FE7B68EC
:103B20001B68144A934220D14FF40063BB604FF4EA
:103B30008073BB6407F10803184604F05CFE03467B
:103B4000002B01D0FFF784FDFFF789FD4FF4806063
:103B5000FFF7C8FD00220021032002F014F8032023
:103B600002F02BF8786805F0DBFA00BF5837BD4645
:103B700080BD00BF0028004080B400AF00BFBD463C
:103B80005DF8047B704780B400AF00BFFDE780B4F0
:103B900000AF00BFFDE780B400AF00BFFDE780B419
:103BA00000AF00BFFDE780B400AF00BFBD465DF8C9
:103BB000047B704780B400AF00BFBD465DF8047B56
:103BC000704780B400AF00BFBD465DF8047B70470E
:103BD00080B500AF01F058FE00BF80BD80B500AFDA
:103BE000FEF760FE00BF80BD80B500AF024802F066
:103BF0000AFA00BF80BD00BF9008002080B500AF6A
:103C0000024802F000FA00BF80BD00BF540A002045
:103C100080B500AF024805F0F5FB00BF80BD00BFD6
:103C2000C009002080B500AF024805F0EBFB00BFE3
:103C300080BD00BF2C09002080B500AF01F06CFAF8
:103C400000BF80BD80B500AF01F09CFA00BF80BD11
:103C500080B500AF02F02AFD00BF80BD80B500AF87
:103C6000024802F0D0F900BF80BD00BFB40A0020B6
:103C700080B500AF102002F001FD00BF80BD80B50F
:103C800000AF012002F0FAFC00BF80BD80B500AF9C
:103C9000022002F0F3FC00BF80BD80B400AF01231E
:103CA0001846BD465DF8047B704780B582B000AF12
:103CB000786039600BF06EFE034616221A604FF0F2
:103CC000FF3318460837BD4680BD80B582B000AFCF
:103CD00078604FF0FF317868FFF7E7FF00BFFDE73E
:103CE00080B586B000AFF860B9607A6000237B6170
:103CF0000AE0AFF300800146BB685A1CBA60CAB242
:103D00001A707B6901337B617A697B689A42F0DBC8
:103D10007B6818461837BD4680BD80B483B000AFBD
:103D200078604FF0FF3318460C37BD465DF8047BD2
:103D3000704780B483B000AF786039603B684FF45F
:103D400000525A60002318460C37BD465DF8047BCC
:103D5000704780B483B000AF7860012318460C37F9
:103D6000BD465DF8047B704780B485B000AFF86055
:103D7000B9607A60002318461437BD465DF8047BAD
:103D80007047000080B586B000AF7860144A154BCC
:103D9000D31A7B617B693B61134B1B68002B02D1FB
:103DA000114B124A1A60104B1A687B6813443A6927
:103DB0009A4207D20BF0EEFD03460C221A604FF038
:103DC000FF3309E0084B1B68FB60074B1A687B68F0
:103DD0001344054A1360FB6818461837BD4680BD7A
:103DE0000000032000100000500B0020881E00205F
:103DF00080B400AF034B1B681846BD465DF8047BDA
:103E0000704700BF8075FF1F80B400AF034B1B6875
:103E1000DBB21846BD465DF8047B70478475FF1F12
:103E200080B400AF034B1B681B0A1846BD465DF803
:103E3000047B70478475FF1FB0B590B000AF92232C
:103E400087F83F30414B3C461D460FCD0FC40FCD88
:103E50000FC40FCD0FC495E8070003C422800234BD
:103E6000130C237000F01AFB012102200AF0BAFBA8
:103E7000374A002104200AF067FD3B46184609F046
:103E800049F9034687F83E3097F83E30002B08D0BA
:103E900097F83E3019462F480BF0B8FBFFF7D8FBD8
:103EA00002E02D480BF0B2FB00F00EFB0AF08EF89A
:103EB0002A4B002283F88020284B4FF6FF72DA82CB
:103EC000274A002101200AF03FFD264A0021022056
:103ED0000AF03AFD062008F045FB034687F83F301C
:103EE00097F83F30002B06D097F83F3019461E4810
:103EF0000BF08CFB02E01D480BF088FB1C4B0022F2
:103F00001A701C4B01221A7000F09CFF1A4B002201
:103F10001A490020FEF768FE194B002219490020BB
:103F2000FEF762FE0D4B00225A760C4B00221A76E9
:103F3000154B80221A80154BA0221A80012000F018
:103F400073FC00BF4037BD46B0BD00BF9C1E0108DA
:103F50002DCB0008C01D0108F81D01085C0B0020D6
:103F6000094A0008514B0008201E0108641E010880
:103F7000E80B0020E90B0020694A0008DD0B002057
:103F8000794A0008DE0B0020E00B0020E20B002045
:103F9000B0B590B004AF7860922387F82F307B687B
:103FA0000133BB62BB6A1B78FF2B00F02081FF2B23
:103FB00000F32A82052B02D03E2B2ED024E2BB6ACE
:103FC0000233FB60FB68B3F801309AB2AC4BDB8A7A
:103FD0009A4214D1AA4B0022DA82A94B002283F81C
:103FE0008020A8480BF082FBFB68B3F801309BB23D
:103FF0001946FB68DB781A46A3480BF007FB012043
:1040000000F012FCA14B01221A709D4BDA8A9F4BE3
:104010005A809E4800F002FFF9E1BB6A0233FB615F
:10402000FB691B780C2B33D00C2B00F3DE80012BAB
:104030006CD0032B40F0D980FB6901337B6194483D
:104040000BF054FB7B69B3F803309BB21846FCF7C6
:1040500051FA4FF000028F4BFCF7B6FA02460B46BE
:10406000104619467B69B3F805309BB21C467B6944
:10407000B3F807309BB21A4613469B0013445B000B
:104080000193009402460B4683480BF0BFFAADE063
:10409000FB690133BB6181480BF0B8FABB691B783F
:1040A000002B03D17E480BF021FB02E07D480BF092
:1040B0001DFB734BDB8A07F10A0207F10B0118465F
:1040C00008F0C8FA034687F82F3097F82F30002BF6
:1040D00003D075480BF09AFA88E074480BF006FBA1
:1040E000FB7A022B0AD1BB7A022B07D1FB7A194645
:1040F000BB7A1A466E480BF089FA77E0FB7A1946CC
:10410000BB7A1A466A480BF081FA6FE0FB6901330B
:104110003B615B4B93F881301846FEF7DFFD3B694E
:10412000B3F801309BB2194662480BF06FFA3B6955
:104130009B7A18463B695B7A1C463B691B7A1D4695
:104140003B69DB791A463B699B7919463B695B7988
:104150000293019100922B462246014656480BF0ED
:1041600055FA3B69B3F80B309BB21846FCF7C2F91D
:104170004FF00002474BFCF727FA02460B46104669
:1041800019463B69B3F80D309BB21C463B69B3F846
:104190000F309BB21A4613469B0013445B000193F9
:1041A000009402460B463C480BF030FA344B93F82F
:1041B0008030042B04D1324B062283F8802003E0A8
:1041C0002F4B052283F880203B69B3F801309AB267
:1041D0002B4BDA822D4B00221A70294BDA8A2B4B9B
:1041E0005A802A4800F01AFE00E000BF0FE1BB6AC7
:1041F00002337B627B6A1B889BB240F60E4293427D
:1042000000F0F88040F60E42934200F3FF80B3F5D1
:10421000006F00F0DC80B3F5006F00F3F780042B33
:1042200000F0DD80042BC0F2F18040F20A4293429C
:1042300000F3EC80B3F5806FC0F2E880A3F58063F3
:104240000A2B00F2E38001A252F823F07942000821
:1042500099430008C1420008F74200080D440008D5
:10426000FF4200080D440008D7430008334300080C
:10427000434300083B43000810480BF037FAC2E004
:104280005C0B0020D81E0108041F0108E40B00206D
:10429000401F01080000F43F741F0108E01F0108DF
:1042A000102001081C2001082820010848200108CE
:1042B000682001088C200108D4200108242101086D
:1042C00055480BF013FA554BDB8A5549184607F051
:1042D000F7FA034687F82F3097F82F30002B06D0D7
:1042E00097F82F3019464F480BF090F98BE04E4865
:1042F0000BF0FCF987E04D480BF0F8F983E04C48EF
:104300000BF0F4F9454BDB8A184607F083FC0346B3
:1043100087F82F3097F82F30002B06D097F82F30E2
:10432000194644480BF072F96DE043480BF0DEF992
:1043300069E042480BF0DAF965E041480BF0D6F944
:1043400061E040480BF0D2F97B6A0233D3F80230C7
:1043500019463D480BF05AF97B6A0233D3F8023014
:1043600019463A480BF052F92C4BDB8A01211846CA
:1043700007F0A4FC034687F82F3097F82F30002B66
:1043800006D097F82F30194631480BF03FF93AE044
:1043900030480BF0ABF936E07B6A02333B622E48C3
:1043A0000BF0A4F93B6A9B78002B03D12B480BF050
:1043B0009DF908E03B6A9B7819463B6ADB781A4610
:1043C00027480BF023F90A200BF032F91BE0254BAC
:1043D00001221A7017E024480BF018F913E00120AD
:1043E00001F0DEF80D4B93F882300A211846FEF7F3
:1043F000F9FC08E01D480BF009F9084BDB8A184668
:1044000007F06FFF00BF01E000BF00E000BF012325
:1044100018463037BD46B0BD542101085C0B002062
:1044200040E201007C210108B0210108D8210108E7
:1044300004220108282201085822010880220108CC
:10444000AC220108DC220108102301082C230108FA
:104450004423010894230108DC23010808240108EF
:1044600020240108E90B00205C24010884240108B1
:1044700080B500AF00F012FD00BF80BD80B500AF79
:10448000002102200AF082FA00BF80BD80B400AF94
:1044900000BFBD465DF8047B7047000080B582B068
:1044A00000AF064B3B60064B7B603B461946054818
:1044B00008F020FB00BF0837BD4680BD2800032060
:1044C000F94B0008C14B0008F0B58DB006AF0023D2
:1044D0003B809223FB75A5480BF008F908F096F88D
:1044E0000346FB75FB7D002B05D0FB7D1946A048DC
:1044F0000BF08CF802E09F480BF0F8F800F040FA5F
:1045000038613A690621002007F040FF0346FB7539
:10451000FB7D002B05D0FB7D194697480BF076F804
:1045200021E096480BF0E2F83B6905331B7818460A
:104530003B6904331B781C463B6903331B781D46DB
:104540003B6902331B781A463B6901331B781946D5
:104550003B691B780293019100922B46224601464B
:1045600087480BF053F83B6905331A78854B1A726C
:104570003B6904331A78834B5A723B6903331A78C8
:10458000804B9A723B6902331A787E4BDA723B6930
:1045900001331A787B4B1A733B691A78794B5A733B
:1045A000794A1021182007F0F1FE0346FB75FB7DC8
:1045B000002B05D0FB7D194674480BF027F802E06C
:1045C00073480BF093F8734A1021082007F0DEFEC1
:1045D0000346FB75FB7D002B05D0FB7D19466E481D
:1045E0000BF014F802E06D480BF080F81821012060
:1045F00007F051FF0346FB75FB7D002B05D0FB7DCB
:10460000194667480BF002F802E066480BF06EF8B6
:1046100007F0BBFB0346FB75FB7D002B05D0FB7D44
:10462000194661480AF0F2FF02E060480BF05EF8BC
:104630000023FB73FB7B43F00103FB73FB7B002B2D
:104640002BD05B4BBB60BA1DF87BBB1C01933B1DA1
:10465000009313460722002107F099F90346FB75E2
:10466000FB7D002B05D0FB7D194652480AF0CEFF9A
:1046700002E051480BF03AF8FC88BD88B868FBF7B7
:10468000DFFD0346DAB2BB680093134600222946D9
:10469000204607F07DFD0346FB75F88879883B4688
:1046A00000930223002207F073FD0346FB750222EC
:1046B0000221002008F04CF80346FB75FB7D002B1F
:1046C00005D0FB7D19463D480AF0A0FF02E03C48BA
:1046D0000BF00CF83B4B01221A703A4B1B78184632
:1046E00006F0D6FF0346FB75FB7D002B05D0FB7D56
:1046F000194635480AF08AFF02E034480AF0F6FF0E
:10470000304B01225A702F4B08221A712D4B102268
:104710005A712C4B0022DA702A4B2D4A9A60294B91
:1047200001229A70274B9C78264B5D78254B1B798C
:10473000244A52792349C978224880680026049681
:104740000390029101920093002301222946204602
:1047500006F0F2FF0346FB75FB7D002B3CD0FB7D92
:1047600019461C480AF052FF39E000BFAC2401088A
:10477000D824010808250108282501088C250108EE
:10478000E0250108140000205C3601081C26010801
:10479000742601086C360108BC260108142701089C
:1047A0005C2701089C270108CC2701080028010884
:1047B000242801082C2801085C2801087C2801080D
:1047C000B82801085C0B0020E4280108242901080E
:1047D00007B20100542901080E480AF087FF0E4B6A
:1047E0009B78002B0FD007F0F1F90346FB75FB7D9A
:1047F000002B05D0FB7D194608480AF007FF02E0B0
:1048000007480AF073FF07480AF000FF00BF1C3793
:10481000BD46F0BDA02901085C0B0020DC29010881
:104820001C2A01084C2A010880B58CB008AF034649
:10483000FB719223FB72FB79012B06D1414B1B8844
:10484000FB81414B1B88BB8105E04FF4C863FB81B2
:104850004FF47A63BB813D4B93F881301846FEF7E5
:104860003DFAFB79022B19D1384B93F88030012B9C
:1048700004D0364B93F88030022B0FD106F0EAFDBE
:104880000346FB72FB7A002B05D0FB7A19463048B1
:104890000AF0BCFE02E02F480AF028FF2B4AFB7901
:1048A00082F88030294B1B7EBA89F9890020069056
:1048B00000200590284804900393284B0293082376
:1048C0000193002300930023002006F0E7FD034638
:1048D000FB72FB7A002B05D0FB7A194620480AF0C0
:1048E00095FE02E01F480AF001FF1F490E2007F065
:1048F000FBF80346FB72FB7A002B0ED0FB79012BF1
:1049000005D1FB7A194619480AF080FE17E0FB7AB8
:10491000194617480AF07AFE11E0FB79012B0AD1FB
:1049200014480AF073FE094B93F881301249184677
:10493000FEF758FA03E011480AF068FE00BF10378E
:10494000BD4680BDE00B0020E20B00205C0B002088
:10495000782A0108C42A0108750B00207C3601085A
:104960000C2B0108442B0108140000206C2B0108BB
:10497000A02B0108D82B010846E00100002C0108FB
:1049800080B586B000AFFFF733FA38613B69B3F109
:10499000FF3F23D0FFF744FAB860FFF735FA78609D
:1049A0003B69DAB2164B1A703B691B0ADAB2144B38
:1049B0005A707B68DAB2124B9A70BB68DAB2104B4D
:1049C000DA70BB681B0ADAB20D4B1A71BB681B0C9C
:1049D000DAB20B4B5A710A4B7B610BE0002008F0F6
:1049E00045FAF860FB68002B02D0FB687B6101E0B0
:1049F000044B7B617B6918461837BD4680BD00BFFC
:104A0000540B00205436010880B582B000AF01205D
:104A100000F0E0FD104B93F88030052B17D0922367
:104A2000FB7106F017FD0346FB710B4B002283F868
:104A30008020FB79002B03D008480AF0E7FD06E050
:104A400007480AF0E3FD07480AF0E0FD00BF00BF99
:104A50000837BD4680BD00BF5C0B0020302C01082C
:104A6000542C01085C2C010880B500AF0021012006
:104A700009F08CFF00BF80BD80B500AF012000F0C1
:104A8000A9FD00BF80BD000090B589B002AF03460C
:104A9000FB80294B1B78012B49D1274B00221A7030
:104AA000264B1B780133002B03F00103B8BF5B4298
:104AB000DAB2224B1A70214B1B78214A9B00134417
:104AC00093ED007AF7EE046AC7EE267AFDEEE77AF8
:104AD00017EE903AFB82194B1B78194A9B0013443E
:104AE00093ED007AF7EE046AC7EE267AFDEEE77AD8
:104AF00017EE903ABB8200237B824FF4FA733B821D
:104B0000104BD88A7C8ABA8AF98A3B8A009323465A
:104B100007F09BFE0346FB73FB7B002B03D00A4888
:104B20000AF074FD03E009480AF070FD00BF00BF01
:104B30001C37BD4690BD00BFE90B0020E80B0020EC
:104B40000C0000205C0B0020782C0108A02C010830
:104B500080B500AF084B93F88030012B0AD0064B8C
:104B600093F88030002B05D0034BDB8A1846FFF703
:104B70008BFF00BF00BF80BD5C0B002080B582B002
:104B800000AF78600021042009F000FF00BF083763
:104B9000BD4680BD80B582B000AF7860012009F0CD
:104BA00061FF00BF0837BD4680BD80B582B000AF51
:104BB0007860012009F076FF00BF0837BD4680BD50
:104BC00080B584B000AF78607B68FB60FB685B6891
:104BD0000833184609F04CFA0346FB72FB7A002BA7
:104BE00003D0FB6801221A7003E0FB6800221A70F0
:104BF00000BF1037BD4680BD80B584B000AF03460E
:104C0000FB71FB79002B02D0012B06D00BE03F2378
:104C1000FB60F86809F0E6FE05E03F23FB60F868FA
:104C200009F000FF00BF00BF1037BD4680BD000087
:104C300080B586B000AF78607B681B78032B1BD0F3
:104C4000032B00F3C580002B02D0012B0AD0BFE05C
:104C5000634B01221A7063480AF048FD62480AF06B
:104C6000D5FCB8E05E4B00221A7060480AF03EFDA9
:104C70005D480AF0CBFCAEE07B685B68FB607B685C
:104C80001B7AFB72FB7A194659480AF0BFFC0023D5
:104C9000FB750AE0FB7DFA6813441B7819465548FA
:104CA0000AF0B4FCFB7D0133FB75FA7DFB7A9A4276
:104CB000F0D30A200AF0BCFCFB7A012B05D8FB7A62
:104CC00019464D480AF0A2FC86E0FB681B78BB72CF
:104CD000FB685A78494B1A7000233B61FB7A052B1D
:104CE00014D9FB6802331B781A46FB6803331B7820
:104CF0001B021A43FB6804331B781B041A43FB682E
:104D000005331B781B0613433B6104E0FB7A19460D
:104D10003B480AF07BFC3B4A3B691360374B1B78EE
:104D20003A69194638480AF071FC7B685B681B7861
:104D3000002B23D17B685B6801331B78012B0BD1DF
:104D4000002000F02DFC31480AF0D0FC26480AF083
:104D50005DFC234B01229A707B685B6801331B78F2
:104D6000002B0BD1002000F035FC29480AF0BEFCD6
:104D70001D480AF04BFC1A4B00229A707B685B6856
:104D80001B78012B26D17B685B6801331B78012BD4
:104D90000BD1002000F004FC1E480AF0A7FC1248CA
:104DA0000AF034FC0E4B01229A707B685B68013379
:104DB0001B78002B0ED1002000F00CFC16480AF0E6
:104DC00095FC09480AF022FC054B00229A7001E08C
:104DD00000BF00E000BF00BF1837BD4680BD00BF68
:104DE000F00B0020D02C0108042D0108082D01082B
:104DF0003C2D0108502D0108582D0108EA0B002018
:104E0000742D0108EC0B0020902D0108B42D010831
:104E1000DC2D0108042E01082C2E010880B582B07B
:104E200000AF78607B681B78002B05D0012B00D089
:104E300003E000F019F800E000BF00BF0837BD46EE
:104E400080BD000080B500AF054A0021082009F0B0
:104E50007BFD044B00221A7000F006F800BF80BDF5
:104E6000AD4E0008F00B002080B500AF002000F030
:104E7000B1FB08480AF03AFC074B01225A70064B76
:104E800000229A70044B0122DA70034B00221A713F
:104E900000BF80BD542E0108F00B002080B500AF8C
:104EA0000021082009F072FD00BF80BD80B500AF71
:104EB0000F4B1B79002B03D10D4B01221A7102E01D
:104EC0000B4B00221A710A4B1B78002B0BD00948A0
:104ED0000AF09CFB08480AF099FB08494FF642602B
:104EE00008F0F6F803E006480AF090FB00BF80BD2A
:104EF000F00B0020642E0108042D0108F30B0020A4
:104F0000A42E010880B400AF054BDB68044A43F4CB
:104F10000043D36000BFBD465DF8047B704700BF0F
:104F20000004005880B483B000AF7860064BD3F81B
:104F3000D42005497B681343C1F8D43000BF0C3737
:104F4000BD465DF8047B70470008005880B483B00C
:104F500000AF7860054B1A6A04497B6813430B6203
:104F600000BF0C37BD465DF8047B70470008005851
:104F700080B485B000AF78604FF0B0431A6D4FF049
:104F8000B0417B6813430B654FF0B0431A6D7B68EB
:104F90001340FB60FB6800BF1437BD465DF8047B1F
:104FA000704780B485B000AF78604FF0B043D3F85D
:104FB00050214FF0B0417B681343C1F850314FF09E
:104FC000B043D3F850217B681340FB60FB6800BFFF
:104FD0001437BD465DF8047B704780B483B000AFE2
:104FE00078607B681B6843F480327B681A6000BF7E
:104FF0000C37BD465DF8047B704780B483B000AFCA
:1050000078607B681B6843F001027B681A6000BF10
:105010000C37BD465DF8047B704780B483B000AFA9
:10502000786039607B685A683B681B04DB431A4030
:105030007B685A6000BF0C37BD465DF8047B704743
:1050400080B483B000AF786039607B685A683B6891
:105050001B041A437B685A6000BF0C37BD465DF8DD
:10506000047B704780B483B000AF786039607B68A0
:105070005A683B68DB431A407B685A6000BF0C37B4
:10508000BD465DF8047B704780B483B000AF7860A4
:1050900039607B683A689A6000BF0C37BD465DF89E
:1050A000047B704780B483B000AF786039603B68A0
:1050B0001A047B689A6000BF0C37BD465DF8047B1C
:1050C000704780B483B000AF786039607B68DA687D
:1050D0003B6813403A689A4201D1012300E0002363
:1050E00018460C37BD465DF8047B704780B483B02A
:1050F00000AF786039607B68DA693B6813403A68D2
:105100009A4201D1012300E0002318460C37BD4626
:105110005DF8047B7047000080B500AF022118489D
:10512000FFF7E4FF0346002B08D0154B5B6803F044
:105130000203002B02D100F025F91EE001211048E6
:10514000FFF7D4FF0346002B08D00D4B5B6803F03C
:105150000103002B02D100F099F80EE00821084865
:10516000FFF7C4FF0346002B08D0054B5B6803F034
:105170000803002B02D100F07DF900BF00BF80BD05
:10518000000C005880B500AF02211848FFF799FFC6
:105190000346002B08D1154B5B6803F40033002B4A
:1051A00002D100F0D3F81EE008211048FFF789FF74
:1051B0000346002B08D10D4B5B6803F40023002B42
:1051C00002D100F019F90EE020210848FFF779FF1D
:1051D0000346002B08D1054B5B6803F40013002B3A
:1051E00002D100F05FF800BF00BF80BD000C005886
:1051F00080B500AF4FF48010FFF7D3FE4FF400707E
:10520000FFF7A4FE4FF40070FFF78CFE40BF20BFF5
:10521000FFF778FE00BF80BD80B500AF4FF480106F
:10522000FFF7A6FE0648FFF7E8FE0548FFF7D5FEA4
:105230002C2000F0C2FC2D2000F0BFFC00BF80BD80
:10524000000C005880B584B000AFEFF310837B6092
:105250007B68FB6072B600BF01210648FFF702FFC2
:10526000FB68BB60BB6883F3108800BF00BF1037CA
:10527000BD4680BD000C005880B500AF012102483A
:10528000FFF710FF00BF80BD000C005880B500AFD5
:1052900008F0D2FF01210248FFF7F6FE00BF80BDF3
:1052A000000C005880B584B000AFEFF310837B6032
:1052B0007B68FB6072B600BF20210748FFF7C0FE85
:1052C000FB68BB60BB6883F3108800BF08F0E4FF95
:1052D00000BF1037BD4680BD000C005880B584B0BB
:1052E00000AFEFF310837B607B68FB6072B600BF9A
:1052F00002210648FFF7B6FEFB68BB60BB6883F37C
:10530000108800BF00BF1037BD4680BD000C00589C
:1053100080B584B000AF02210B48FFF7C3FEEFF366
:1053200010837B607B68FB6072B600BF0221064879
:10533000FFF773FEFB68BB60BB6883F3108800BF98
:1053400000BF1037BD4680BD000C005880B584B04A
:1053500000AFEFF310837B607B68FB6072B600BF29
:1053600002210748FFF76CFEFB68BB60BB6883F354
:10537000108800BF08F0E4FF00BF1037BD4680BDB5
:10538000000C005880B500AF08F0F0FF0221024881
:10539000FFF77AFE00BF80BD000C005880B586B0D4
:1053A00000AF786008211248FFF78BFE0346002B00
:1053B00013D0104A7B681360EFF31083FB60FB6827
:1053C0007B6172B600BF08210948FFF726FE7B69A2
:1053D0003B613B6983F3108805E07B6898470821AF
:1053E0000348FFF75FFE00BF1837BD4680BD00BF12
:1053F000000C0058F80B002080B584B000AFEFF32C
:1054000010837B607B68FB6072B600BF08210A488E
:10541000FFF716FEFB68BB60BB6883F3108800BF14
:10542000064B1B68984708210348FFF73BFE00BF67
:105430001037BD4680BD00BF000C0058F80B00209F
:1054400080B584B000AFEFF310837B607B68FB60B6
:1054500072B600BF08210648FFF704FEFB68BB6078
:10546000BB6883F3108800BF00BF1037BD4680BD06
:10547000000C005880B500AF09F020F80821024860
:10548000FFF702FE00BF80BD000C0058D458C45086
:105490000433C4188C42F9D3704703600430884247
:1054A000FBD370470C48854600F01EF90B480C49A9
:1054B0000C4A0023FFF7EDFF0B480C490023FFF7D0
:1054C000EEFF0B480B490023FFF7E9FF0AF068FAEB
:1054D000FDF758FEFEE70000000003200800002052
:1054E00018020020E43A010854020020841E002023
:1054F000E4010320670A0320FEE780B485B000AF13
:1055000078604FF0B043DA6C4FF0B0417B681343E2
:10551000CB644FF0B043DA6C7B681340FB60FB68F0
:1055200000BF1437BD465DF8047B704780B588B076
:1055300000AF0346FB7107F10C0300221A605A60AA
:105540009A60DA601A610220FFF7D7FFFB79124AEE
:1055500032F81330FB6001233B6100237B6102239F
:10556000BB61FB790D4A52F8233007F10C0211465A
:10557000184600F0FBFEFB79084A52F82300FB793D
:10558000054A32F813300022194601F05FF800BFD7
:105590002037BD4680BD00BF8436010824000020AE
:1055A00080B582B000AF0346FB71FB79074A52F821
:1055B0002300FB79064A32F813300122194601F024
:1055C00045F800BF0837BD4680BD00BF240000205D
:1055D0008436010880B582B000AF0346FB71FB79C9
:1055E000074A52F82300FB79064A32F813300022AA
:1055F000194601F02BF800BF0837BD4680BD00BF3B
:10560000240000208436010880B588B000AF03462E
:105610000A46FB711346BB7107F10C0300221A60A6
:105620005A609A60DA601A61FB79002B03D104207A
:10563000FFF763FF0CE0FB79012B03D10820FFF794
:105640005CFF05E0FB79022B02D10820FFF755FF34
:10565000BB79002B17D1FB79204A32F81330FB605D
:1056600000233B6101237B610223BB61FB791C4A60
:1056700052F8233007F10C021146184600F076FE6E
:105680000120FCF7B7FCBB79012B23D1FB79134A2E
:1056900032F81330FB6001237B614FF404133B614C
:1056A000FB790F4A52F8233007F10C0211461846D5
:1056B00000F05CFEFB790B4AD35C5BB200220F2149
:1056C000184600F060FAFB79064AD35C5BB21846D4
:1056D00000F073FA00BF2037BD4680BD8C3601084C
:1056E000300000209436010880B400AF264B002221
:1056F0009A60254BD3F88830234A43F47003C2F8EC
:1057000088304FF0B0431B684FF0B04243F00103C4
:1057100013604FF0B0434FF4E0229A604FF0B04373
:105720001A684FF0B041194B13400B604FF0B04373
:10573000D3F894304FF0B04223F00503C2F8943010
:105740004FF0B043D3F898304FF0B04223F001034C
:10575000C2F898304FF0B0430D4ADA604FF0B043D2
:105760000B4A1A614FF0B0431B684FF0B04223F46C
:10577000802313604FF0B04300229A6100BFBD4602
:105780005DF8047B704700BF00ED00E0FBFEF6FA19
:105790000010042280B400AF054B5B68044A43F05C
:1057A0000103536000BFBD465DF8047B704700BF36
:1057B000002004E080B400AF054B5B68044A43F06E
:1057C0000203536000BFBD465DF8047B704700BF15
:1057D000002004E080B582B000AF0023FB710C4BC9
:1057E0001B680B4A43F480731360032000F0C0F978
:1057F000002000F00FF80346002B02D00123FB71BC
:1058000001E0FDF7BAFFFB7918460837BD4680BDB9
:105810000040005880B584B000AF78600023FB736F
:10582000174B1B78002B24D002F054FD0246144B7A
:105830001B7819464FF47A73B3FBF1F3B2FBF3F321
:10584000184600F0D6F90346002B0FD17B680F2BCA
:1058500009D8002279684FF0FF3000F094F9094A26
:105860007B68136007E00123FB7304E00123FB73F3
:1058700001E00123FB73FB7B18461037BD4680BD5A
:10588000440000204000002080B400AF064B1B788D
:105890001A46064B1B681344044A136000BFBD46FA
:1058A0005DF8047B704700BF44000020FC0B002023
:1058B00080B400AF034B1B681846BD465DF8047BFF
:1058C000704700BFFC0B002080B400AF034B1B6887
:1058D0001846BD465DF8047B704700BF40000020BD
:1058E00080B400AF034B1B781846BD465DF8047BBF
:1058F000704700BF4400002080B500AFFFF74AFFAB
:1059000000BF80BD80B500AFFFF754FF00BF80BD72
:1059100080B485B000AF78607B6803F00703FB605C
:105920000C4BDB68BB60BA684FF6FF031340BB60EB
:10593000FB681A02BB68134343F0BF6343F40033B0
:10594000BB60044ABB68D36000BF1437BD465DF836
:10595000047B704700ED00E080B400AF044BDB68CF
:105960001B0A03F007031846BD465DF8047B704729
:1059700000ED00E080B483B000AF0346FB7197F9FF
:105980000730002B0BDBFB7903F01F02074997F967
:1059900007305B09012000FA02F241F8232000BF22
:1059A0000C37BD465DF8047B704700BF00E100E0A6
:1059B00080B483B000AF0346FB7197F90730002B2A
:1059C00012DBFB7903F01F020A4997F907305B09E4
:1059D000012000FA02F2203341F82320BFF34F8F59
:1059E00000BFBFF36F8F00BF00BF0C37BD465DF82F
:1059F000047B704700E100E080B483B000AF034651
:105A0000FB7197F90730002B0CDBFB7903F01F02C9
:105A1000074997F907305B09012000FA02F2403389
:105A200041F8232000BF0C37BD465DF8047B70476A
:105A300000E100E080B483B000AF0346FB7197F94A
:105A40000730002B0CDBFB7903F01F02074997F9A5
:105A500007305B09012000FA02F2603341F823208D
:105A600000BF0C37BD465DF8047B704700E100E0E5
:105A700080B483B000AF03463960FB7197F90730FB
:105A8000002B0ADB3B68DAB20C4997F907301201A8
:105A9000D2B20B4483F800230AE03B68DAB208492B
:105AA000FB7903F00F03043B1201D2B20B441A76C8
:105AB00000BF0C37BD465DF8047B704700E100E095
:105AC00000ED00E080B489B000AFF860B9607A60A2
:105AD000FB6803F00703FB61FB69C3F10703042BB9
